:020000042000DA
:10000000A50000206301002075010020810100206F
:10001000B100002021010020D501002000000000D7
:10002000010200200000000041010020B501002075
:040030001D0200208D
:10003400281000207F000020750000207700002099
:1000440000000000000000000000000000000000AC
:100054000000000000000000000000007900002003
:1000640000000000000000007B0000207D00002054
:10007400FEE7FEE7FEE7FEE7FEE706498D46064992
:1000840081F3098800208646EC4600200021034ABB
:10009400904700002810002030100020B1030020F9
:1000A400014B1B68704700BFF40E0020090B2DE9BB
:1000B400F04103462AD000EB0135164F1649121AB7
:1000C4003868002402EB030804EB030C08EB040E6D
:1000D400C86810F48030FBD10E6926F440760E61B6
:1000E4000E6946F400760E610E6946F001060E6153
:1000F4000434DEF80060CCF80060B4F5805FE3D12E
:1001040003F58053AB42DBD1BDE8F0814FF0FF3003
:10011400FAE700BFF40E0020003C0240064B1B68C7
:1001240001440378934200F1010003D18842F8D1DD
:100134000020704701207047F40E002070B50D0BAD
:100144000446161A32194FF480512046FFF7AEFFC9
:10015400002803DB013D04F58054F3D170BD08B5DC
:1001640000F026F900F036FD00F0CEF9002008BDBD
:1001740008B500F0DBF9002008BD000010B50B4BFA
:1001840086B000241B68009400F070FD02230593E0
:1001940003900123694601A80194049300F054FAE2
:1001A400001B18BF012006B010BD00BFF40E0020D4
:1001B40038B5064B1B68054614462846FFF7DEFF94
:1001C40018B9013C05F58045F7D138BDF40E00207F
:1001D4007FB500230093084B02221B68059201237C
:1001E400694601A80193029300F02EFA003818BF63
:1001F400012007B05DF804FBF40E002007B500935E
:1002040013460A460146034800F00CF803B05DF8B3
:1002140004FB00BF000000200146014800F058B86C
:1002240000000020F0B587B01F000092244B0C9A08
:100234000C00244E01909A4204D0234B234E9A4240
:1002440000D000263D00102F00D91025019B009AF4
:100254005B6A7F1B002B04D002AA290000989847F0
:1002640002AA009B5B19009355191300002E16D0A7
:100274000F201A7801335440220002409200915911
:1002840022094A401100014089008C591209544046
:100294009D42EED1002FD5D1200007B0F0BD1A78D1
:1002A40054400822012121406408002901D00C99FE
:1002B4004C40013A002AF5D101339D42EFD1E9E7E0
:1002C4002083B8EDA40E0020783BF682640E002053
:1002D400F0B5012705000C0085B07F42E06A0028D4
:1002E40021D0236A02380293636A029A03932E4B45
:1002F40013600023E362A668E368F618092851D85E
:1003040000F004FD05165022292B444A504E6B6917
:100314003800002B04D0216962693000D2B29847BA
:10032400029B039C18602B68002BD7D09847D5E715
:1003340061692369A269280000923200FFF772FF05
:10034400029B98600020EBE76B6A3800002BE7D033
:100354002169226809E0AB6AF7E72369002B0FD013
:10036400EB6A002B04D06169226930009847D7E713
:1003740023693800012BD3D13000EB689847CFE7CD
:10038400AB693800002BCBD09847C9E7A16930008E
:100394006269FFF7E4FEC3E76069FFF7E9FEBFE7C0
:1003A400EB69D2E73800BBE7FFFFFF7F002070470F
:1003B4007047000038B50E4B1A784FF47A73B3FBCC
:1003C400F2F30C4A05461068B0FBF3F000F04EF867
:1003D400044658B90F2D09D8024629464FF0FF307C
:1003E40000F012F8044B20461D6038BD0120FCE7E4
:1003F400FC0E0020F80E0020000F0020014B1868AE
:10040400704700BF040F0020164B30B5DC68C4F3FE
:100414000224C4F10703251D042B28BF0423062D41
:100424004FF0FF358CBF033C002405FA03F321EAA7
:100434000303A54022EA0502A340002843EA02037D
:10044400ACBF00F16040084A4FEA0313B8BF00F0A4
:100454000F00DBB2AABF00F56140135480F80033EB
:1004640030BD00BF00ED00E014ED00E00138B0F154
:10047400807F0BD24FF0E023054A5861F02182F8C7
:1004840023100020072298611A61704701207047E9
:1004940000ED00E01A4BDA68D20606D51949CA699C
:1004A40042F01002CA611022DA60DA68900606D5BA
:1004B4001449CA6942F00802CA612022DA60104B6A
:1004C400DA68510606D50F49CA6942F00402CA61C6
:1004D4004022DA60DA68120606D50A49CA6942F08F
:1004E4000202CA618022DA60054AD3689B0706D5F6
:1004F4000449CB6943F02003CB610223D3607047E6
:10050400003C0240080F0020064B1A69002ABFBFB6
:10051400054A5A6002F188325A60BABF1869C00F9E
:1005240000207047003C024023016745034A1369D9
:1005340043F0004313610020704700BF003C0240B9
:10054400114B70B500220446DA61FFF757FF0F4DD7
:100554000646EB68DA030CD4EB68DB0744BF0123DF
:10056400EB60E86810F0F20007D0FFF793FF01207A
:1005740003E0611CEDD00CB9032070BDFFF73EFF12
:10058400801BA042E5D9F7E7080F0020003C024099
:10059400074B1A6922F440721A611A6942F0040284
:1005A4001A611A6942EA002242F480321A617047E1
:1005B400003C02400D4B1A6922F440721A611A6918
:1005C400022994BF09024FF440710A431A611A695F
:1005D40022F0F8021A611A6942EAC00040F00200EF
:1005E40018611A6942F480321A617047003C024073
:1005F400144B1A6891050FD51A6822F400721A6018
:100604001A6842F400621A601A6822F400621A60DE
:100614001A6842F400721A600A4B1A6852050FD520
:100624001A6822F480621A601A6842F480521A60CE
:100634001A6822F480521A601A6842F480621A60BE
:10064400704700BF003C02402DE9F843DFF890807A
:1006540098F81830012B05460F463FD001234CF281
:10066400503088F81830FFF76BFF0446A0B94FF0FC
:10067400FF333B602B68012B14D1287CFFF788FFE4
:100684004CF25030FFF75CFF164A136923F0040361
:1006940004461361FFF7ACFF002388F818302046A6
:1006A400BDE8F883AE68DFF83C90EB68AA681344B1
:1006B400B342EFD9297C3046FFF77CFF4CF250302F
:1006C400FFF73EFFD9F8103023F0FA03C9F81030D1
:1006D40010B13E600446DDE70136E6E70224DEE7BA
:1006E400080F0020003C02402DE9F341044640B3CA
:1006F4000368DE0710D423689D075BD423681907B9
:1007040000F19D8023685A0700F1BD80A369002B86
:1007140040F0248100202CE08D4B9A6802F00C02FA
:10072400042A07D09A6802F00C02082A0BD15B68ED
:10073400590208D5864B1B689A03DCD56368002BE5
:10074400D9D1012015E06368814DB3F5803F13D101
:100754002B6843F480332B60FFF750FE7C4E054634
:1007640033689B03C7D4FFF749FE401B6428F7D9BD
:10077400032002B0BDE8F081B3F5A02F04D12B68AB
:1007840043F480232B60E3E72A6822F480322A6052
:100794002A6822F480222A60002BDDD1FFF72EFE86
:1007A40006462B689F03A6D5FFF728FE801B642806
:1007B400F7D9DDE7664B9A6812F00C0F07D09A68F8
:1007C40002F00C02082A11D15B685D020ED4604A63
:1007D4001368990702D5E368012BB2D11368216924
:1007E40023F0F80343EAC103136087E7E268594B37
:1007F400B2B101221A60FFF701FE554D06462B687F
:100804009B0707D52B68226923F0F80343EAC20348
:100814002B6073E7FFF7F2FD801B0228EFD9A7E7EF
:100824001A60FFF7EBFD4A4E054633689F077FF5D4
:1008340065AFFFF7E3FD401B0228F6D998E762692C
:10084400444B82B10122C3F8802EFFF7D7FD404EFE
:100854000546736F9B073FF555AFFFF7CFFD401B70
:100864000228F6D984E7C3F8802EFFF7C7FD384E77
:100874000546736F9F077FF545AFFFF7BFFD401B2C
:100884000228F6D974E7324B1A6C12F0805228D140
:1008940001921A6C42F080521A641B6C03F080536C
:1008A4000193019B01272C4D2B68D8051BD5A36808
:1008B400274D012B27D12B6F43F001032B67FFF743
:1008C4009DFD234E054641F28838336F9A0739D58A
:1008D400002F3FF41BAF1E4A136C23F080531364A4
:1008E40014E70027DFE72B6843F480732B60FFF7DE
:1008F40085FD06462B68D905D9D4FFF77FFD801BFB
:100904000228F7D934E7052B04D12B6F43F00403F5
:100914002B67D0E72A6F22F001022A672A6F22F0A0
:1009240004022A67002BCAD1FFF768FD41F2883818
:1009340006462B6F9B07CBD5FFF760FD801B404518
:10094400F7D915E7FFF75AFD401B4045BDD90FE71E
:10095400003802400000474200700040374DAA684A
:1009640002F00C02082A3ED0022B354B4FF0000255
:100974001A662BD1FFF742FD06462B6899011FD456
:10098400226AE3691343626A43EA8213E26A43EA2E
:100994000263A26A5208013A43EA02436B60284B9D
:1009A400264D01221A66FFF729FD04462B689A0199
:1009B4003FF5B0AEFFF722FD001B0228F6D9D7E6BB
:1009C400FFF71CFD801B0228D7D9D1E6FFF716FDDF
:1009D40004462B689B017FF59DAEFFF70FFD001BBE
:1009E4000228F6D9C4E6012B3FF4ABAE6B68E2698A
:1009F40003F4800191427FF4A4AE216A03F03F0224
:100A04008A427FF49EAE616A47F6C0721A40B2EB26
:100A1400811F7FF496AEA26A520803F44031013A72
:100A2400B1EB024F7FF48DAEE26A03F07063B3EB77
:100A3400026F14BF012000209BE600BF0038024073
:100A440000004742134908B58B6803F00C03042BDC
:100A54001CD0082B1CD14A684B68496813F48003E6
:100A640014BF0D480D48C1F3881118BF002302F0CC
:100A74003F02A1FB000100F052F9064B5B68C3F38F
:100A8400014301335B00B0FBF3F008BD0248FCE70F
:100A94000248FAE70038024040787D010024F4005F
:100AA4002DE9F0410D46044610B90120BDE8F0815E
:100AB400434B1A6802F007028A4228D321688F0741
:100AC4002DD4C80740D43E4B1A6802F00702AA424C
:100AD40065D8226851076BD4130707D5394A2169B1
:100AE400936823F4604343EAC1039360FFF7AAFFCA
:100AF400344B354A9B68C3F30313D35CD840334B60
:100B04001860334B1868FFF755FC0020CEE7CAB2D3
:100B14001A701B6803F007038B42C6D1CEE7294B3A
:100B240011F0040F1EBF9A6842F4E0529A600E0757
:100B340042BF9A6842F460429A609A68A06822F0C0
:100B4400F00202439A60BCE762681E4B012A1CD182
:100B54001B6813F4003FA8D01A4EB36823F00303B4
:100B64001343B360FFF74AFC41F288380746B36881
:100B7400626803F00C03B3EB820FA4D0FFF73EFCD2
:100B8400C01B4045F3D9032090E7911E01291B683F
:100B940002D813F0007FDEE713F0020FDBE7EAB2BE
:100BA4001A701B6803F00703AB427FF47EAF90E733
:100BB4000449E0688B6823F4E05303438B608BE7BC
:100BC400003C024000380240E40E0020F80E0020F1
:100BD400000F002030B595B01422002109A800F0C0
:100BE40039F91422002103A800F034F900231D4A26
:100BF4000193116C41F080511164126C02F0805227
:100C04000192019A184A0293116821F480411160FB
:100C1400126802F4804202920225029A0895102278
:100C2400CDE90E530C923C230822CDE91023012474
:100C3400042308A80B9412951393FFF755FD01465E
:100C440070B90F23039306908023079003A804959B
:100C54000593FFF725FF003818BF012015B030BDFC
:100C64002046FBE7003802400070004000F1784362
:100C7400B3F5804F36D3A3F58042B2F5804F33D31A
:100C8400A3F50042B2F5804F30D3A3F54043B3F54A
:100C9400804F2DD300F1774000F57F03B3F5803FFB
:100CA40028D300F57E03B3F5003F25D300F57C037C
:100CB400B3F5003F22D300F57A03B3F5003F1FD309
:100CC40000F57803B3F5003F1CD300F57603B3F5C4
:100CD400003F19D300F57400B0F5003F2CBF0B2082
:100CE4000A20704700207047012070470220704797
:100CF4000320704704207047052070470620704782
:100D04000720704708207047092070478C467146B9
:100D140049084900095C49008E4461467047002B2C
:100D240035D129B9B0FBF2FC0CFB120260467047C6
:100D3400914215D22DE9F041B2FA82F39A409940DA
:100D4400D3F1200C30FA0CFC51EA0C01984000F06D
:100D54004EF8280036FA03F200210023BDE8F081A2
:100D6400F0B5B1FBF2FC0CFB1211B2FA82F39A401B
:100D74009940D3F1200630FA06F63143984000F04A
:100D840036F8614628003200DA400023F0BDF3B59E
:100D9400B3FA83FC49085FEA300013FA0CF3DCF180
:100DA400200432FA04F423430CB41A0000F01FF8B0
:100DB4000CBC33FA0CF3DCF11F0C35FA0CF518BF3C
:100DC400013D03BCA5FB026705FB0377801BB9410A
:100DD400904271EB030C05D3821A71EB0303681C78
:100DE4000021F0BD02000B0028000021F0BD940D8D
:100DF4004FF6C2752D02B5FBF4F4D60A013604FB96
:100E040004F5A5FB0656F64306EB0416550832BF57
:100E140000277708013505FB1677A6FB07477F08EF
:100E240007EBC63714001500E7FB02457F1B4D1C7A
:100E34000400E7FB014505FB1206A64284BF013D01
:100E4400B618964224BF0135B61A704700220B002B
:0E0E540011001A0012B1013A8154FCD170470E
:100E6400000000006FC75E10DE8EBD20B149E33084
:100E7400BC1D7B41D3DA25516293C6610D54987130
:100E8400783BF68217FCA892A6B54BA2C97215B29C
:100E9400C4268DC3ABE1D3D31AA830E3756F6EF3C8
:100EA400000000006410B71DC8206E3BAC30D9268A
:100EB4009041DC76F4516B6B5861B24D3C71055036
:100EC4002083B8ED44930FF0E8A3D6D68CB361CB5E
:100ED400B0C2649BD4D2D38678E20AA01CF2BDBD12
:100EE40000000000000000000102030406070809D6
:101030000101696E7465726E616C20666C61736823
:1010400000000000000000000000000000000000A0
:101050000000000000000000000000000000000090
:101060000000000000000000000000000000000080
:101070000000000000000000000000000000000070
:101080000000000000000000000000000000000060
:101090000000000000000000000000000000000050
:1010A0000000000000000000000000000000000040
:1010B0000000010000000008000010000010000007
:1010C00000000000FF000000640000007017000036
:1010D00000400000000000000000010000000100CE
:1010E0000000020000000200FFFFFFFFFFFFFFFF04
:040000052000007F58
:00000001FF
